:020000040800F2
:10000000FCFF00208D1700008517000085170000F9
:100010008517000085170000851700008517000070
:100020008517000085170000851700008517000060
:100030008517000085170000851700008517000050
:100040008517000085170000851700008517000040
:100050008517000085170000851700008517000030
:100060008517000085170000851700008517000020
:100070008517000085170000851700008517000010
:100080008517000085170000851700008517000000
:1000900085170000851700008517000085170000F0
:1000A00085170000851700008517000085170000E0
:1000B00085170000851700008517000085170000D0
:1000C00085170000851700008517000085170000C0
:1000D00085170000851700008517000085170000B0
:1000E00085170000851700008517000085170000A0
:1000F0008517000085170000851700008517000090
:10010000851700008517000085170000851700007F
:10011000851700008517000085170000851700006F
:10012000851700008517000085170000851700005F
:10013000851700008517000085170000851700004F
:10014000851700008517000085170000851700003F
:1001500001480068704700BF9800002081B019492D
:1001600000EA0101084600220EE0042022E00820F7
:1001700020E010201EE020201CE040201AE080201B
:1001800018E040F2001015E00F498842EDD00F4909
:100190008842ECD00E498842EBD00E498842EAD022
:1001A0000D498842E9D00D498842E8D00C4988427F
:1001B000E7D010460B49096841EA000209490A6084
:1001C00001B0704700FCFFFF00080140000C014037
:1001D000001001400014014000180140001C0140C3
:1001E000002001401810024082B0CDF800E0034624
:1001F00019460191FFF7ACFF40F2E83100FB01F234
:1002000001990A601F490978C1F30311C8B21E4958
:1002100009180878C0B21A1D1968C140116019493F
:100220000988C1F3022188B2174909180878C0B2B9
:1002300003F20802191D0968C140116011490988BB
:10024000C1F3C22188B2104909180878C0B203F27C
:100250000C02191D0968C14011600A490988C1F3DF
:10026000813188B2094909180978C8B203F210022D
:1002700003F20C010968B1FBF0F11160DDF800E058
:1002800002B07047041002404B1B0000540D0000E8
:1002900083B0CDF800E000F0FF031A09104603F028
:1002A0000F02134614E0194A02921FE0184A029204
:1002B0001CE0184A029219E0174A029216E0174A07
:1002C000029213E0164A029210E0164A02920DE0E2
:1002D0000028E8D00128E9D00228EAD00328EBD092
:1002E0000428ECD00528EDD00628EED0012212B269
:1002F0009A40ADF8042002980A46BDF8041000F0B8
:1003000009F9DDF800E003B0704700BF00080140C4
:10031000000C014000100140001401400018014091
:10032000001C01400020014081B0ADF800100146E2
:10033000BDF800000B68C3F3C01202B9FAE70A1D4A
:10034000106001B07047FFFF81B000230360CB0055
:100350009BB242EA030304689BB244EA03030360CE
:10036000051D13141C462B6864F382032B6000F2F6
:100370001C0500242B6864F3CB232B600124036845
:1003800064F38613036001B07047FFFF81B0CDF8BE
:1003900000E0012252B23E490A6000F268010B6897
:1003A0006FF0006103EA0102144603F00061C90E18
:1003B0000B4602F00041B1F1004F02D135490A6805
:1003C00001E035490A6804F47021090C0E464FF625
:1003D000FF7104EA01010D4604F44011B1F5401F1C
:1003E0000DD16FF0706102EA01010E462A490A68D8
:1003F0006FF070610A4028490A60324616E004F442
:100400008011B1F5801F09D14FF00301B140C943FC
:1004100002EA010141F070610A4607E0610D09013D
:1004200005FA01F1C9430A4042F070622BB1610D37
:10043000090105FA01F10A43FFE704F00041B1F1B7
:10044000004F02D113490A6001E013490A6040F2EB
:10045000000A81464FEA8A0109EB01010968B1F1FE
:10046000FF3F10D009F134014FEA8A03C918096827
:100470000A4609EB0301096808461146FFF708FF21
:100480000AF1010AE6E7DDF800E001B0704700BFBD
:10049000000342421C0001400400014081B000F210
:1004A0000C02116000F208021368C3F3000202B9E3
:1004B000F8E700F20C02126890B201B07047FFFF3B
:1004C00081B0CDF800E081B20348FFF7E7FFDDF827
:1004D00000E001B0704700BF0038004081B0CDF8A7
:1004E00000E081B20348FFF7D9FFDDF800E001B07A
:1004F000704700BF0030014081B0CDF800E081B20C
:100500000348FFF7CBFFDDF800E001B0704700BF04
:10051000003C004081B0CDF800E08CB21546774B2E
:1005200000EA03031E461846FFF718FEB4F1FF0F5A
:100530000CD1734B9D4203D14FF033333360D9E07C
:10054000422D03D14FF044333360D3E04FF6FF73B5
:100550009C4214D16A4B9D4207D14FF03333336034
:10056000341D4FF033332360C4E0422D07D14FF0E8
:1005700044333360341D4FF044332360BAE000212C
:10058000002005F001030BB100211DE005F002037E
:1005900033B105F4C0730BB1082100E0042113E06E
:1005A00005F0040333B105F020030BB1042100E092
:1005B000002109E005F0080333B105F020030BB179
:1005C0000C2100E00821FFE74E4B05EA03030BB1C5
:1005D000032009E005F400730BB1022004E005F4E8
:1005E00080630BB10120FFE705F00C030BB1014361
:1005F000FFE704F0FF039BB2002B3BD037680020DD
:100600001FFA84F832462E4608282CD24FF00103F8
:1006100003FA00F408EA0403A34222D185004FF054
:100620000F03AB40DB4307EA030401FA05F344EA96
:1006300003031D4606F48173B3F5817F05D102F2F1
:1006400014044FF001038340236006F08203822BE1
:1006500005D102F210044FF00103834023602F46BE
:10066000FFE7401CD0E717601FFA88F00F463146BD
:10067000164602E00F462946A0B2B0F1FF0F39D965
:10068000331DD3F800800022082A30D202F2080479
:100690004FF0010303FA04F400EA0403A34224D157
:1006A00095004FF00F03AB40DB4308EA030807FA5D
:1006B00005F348EA030801F48173B3F5817F07D19C
:1006C00006F2140502F208044FF00103A3402B6068
:1006D00001F08203822B07D106F2100502F2080412
:1006E0004FF00103A3402B60FFE7521CCCE7331D02
:1006F000C3F80080DDF800E001B0704700FCFFFFA8
:10070000140008000008080089B0CDF800E0834616
:1007100098B28C46BDF824100A9E04ACADF80410C3
:10072000ADF808002046FFF75FFDBDF80800BDF8F2
:100730000410644CA34512D101256DB2624C2560B2
:10074000624D634C2560634D634C2560634D644C82
:100750002560644D644C2560079C039456E0634C0F
:10076000A34512D101256DB2614C2560614D584CF5
:100770002560614D584C2560604D594C2560604D99
:10078000594C2560069C039440E05E4CA34512D171
:1007900001256DB25C4C25605C4D4D4C25605C4D77
:1007A0004D4C25605B4D4E4C25605B4D4E4C25609D
:1007B000069C03942AE0594CA34512D101256DB241
:1007C000574C2560574D424C2560574D424C256093
:1007D000564D434C2560564D434C2560069C039472
:1007E00014E0544CA34511D101256DB2524C256043
:1007F000524D374C2560524D374C2560514D384C89
:100800002560514D384C2560069C0394ADF80410CA
:10081000ADF808003046FFF7B9FDBDF80800BDF897
:1008200004100BF1100500242C600BF110052C684E
:100830000C432C600BF10C0500242C6018B140F423
:10084000806080B2FFE70BF10C052C6804432C603C
:100850000BF10C060125346865F34D3434600BF15F
:100860000C060125346865F3C30434600BF10C06F3
:100870000125346865F3820434600BF1140500240B
:100880002C60039D192465434FEA8C04B5FBF4F7F3
:100890006424B7FBF4F42601350964246C433C1B43
:1008A000240104F232056424B5FBF4F404F00F04CF
:1008B00046EA04040BF10805A4B22C60DDF800E060
:1008C00009B070470038014038034242610A000015
:1008D000A4000020FFFFFFFFA8000020FFFFFFFF94
:1008E000AC000020FFFFFFFFB000002000440040EC
:1008F000C40342420D0A0000FFFFFFFFFFFFFFFF9E
:10090000FFFFFFFF00480040C8034242B909000052
:10091000FFFFFFFFFFFFFFFFFFFFFFFF004C004057
:10092000CC034242D5090000FFFFFFFFFFFFFFFF9E
:10093000FFFFFFFF00500040D0034242F1090000DA
:10094000FFFFFFFFFFFFFFFFFFFFFFFF81B0CDF8BD
:1009500000E0019D2C4610B408B493B28AB201465F
:100960000348FFF7D1FE02B0DDF800E001B07047A8
:100970000044004081B0CDF800E0019D2C4610B449
:1009800008B493B28AB201460348FFF7BDFE02B035
:10099000DDF800E001B070470038014081B0CDF8CB
:1009A00000E081B20348FFF779FDDDF800E001B017
:1009B000704700BF0030014081B0CDF800E081B247
:1009C0000348FFF7B1FCDDF800E001B0704700BF5D
:1009D0000048004081B0CDF800E081B20348FFF745
:1009E000A3FCDDF800E001B0704700BF004C004000
:1009F00081B0CDF800E081B20348FFF795FCDDF847
:100A000000E001B0704700BF0050004081B0CDF859
:100A100000E081B20348FFF787FCDDF800E001B099
:100A2000704700BF0044004081B0CDF800E081B2C3
:100A30000348FFF733FDDDF800E001B0704700BF69
:100A40000038004081B0CDF800E081B20348FFF7E4
:100A500025FDDDF800E001B0704700BF003C00401C
:100A600081B0CDF800E081B20348FFF75DFCDDF80E
:100A700000E001B0704700BF0038014083B0CDF8FE
:100A800000E08AB2014690B283B2421E90B26BB1CE
:100A90000A78D4B2ADF804000291A0B2054C2468E3
:100AA000A0470299BDF80400491CEDE7DDF800E01D
:100AB00003B070478400002083B0CDF800E08DF8CB
:100AC000040002910B4C0C4B1C600C4C0C4B1C603A
:100AD000012464B20B4B1C601046FFF757FC029ACE
:100AE0009DF804100848FFF72FFCDDF800E003B084
:100AF000704700BFF90400009C000020450A000078
:100B0000A0000020BC034242003C004083B0CDF86E
:100B100000E0ADF808100190BDF80830BDF80820DD
:100B2000521EADF808204BB10020064C2468A047A7
:100B3000019A1070019A521C0192EDE7DDF800E075
:100B400003B070478800002081B0CDF800E04FF07E
:100B5000420289B2FFF7DEFCDDF800E001B0704729
:100B600081B0CDF800E0044A89B2FFF7D3FCDDF88C
:100B700000E001B0704700BF1400080081B0CDF85C
:100B800000E0019D2C4610B408B493B28AB201462D
:100B90000348FFF7B9FD02B0DDF800E001B070478F
:100BA0000048004001490860704700BFA801224288
:100BB00001490860704700BFB881224201490860BE
:100BC000704700BFAC01224201490860704700BF76
:100BD000B001224281B00A4681B200208DB2114696
:100BE000052805D20B1820221A70401CC0B2F7E766
:100BF0000B1800221A70401EC0B20C180A23B5FB55
:100C0000F3F203FB125292B2303222700A22B5FB89
:100C1000F2F292B295B202B902E0401EC0B2ECE725
:100C200001B0704701490860704700BF98812142B8
:100C300001490860704700BFA08122420149086055
:100C4000704700BFA481224201490860704700BF7D
:100C50008C01224201490860704700BF9401214283
:100C600001490860704700BF9C81214200F23003B7
:100C700003F218010A6806490A6003F21C010A68B7
:100C800004490A6000F208010A6803490A607047D3
:100C900090000020940000208C000020026803498E
:100CA0000A60011D0A6802490A607047840000203A
:100CB0008800002001490860704700BFB0812242CF
:100CC00001490860704700BF9881224201490860CD
:100CD000704700BFB081224282B0CDF800E001AA87
:100CE00040F08001117000200C4C2468A04701A93D
:100CF00008460121FFF7C2FE0DF106010846012159
:100D0000FFF704FF0120054C2468A0470DF1060100
:100D10000978C8B2DDF800E002B070478C0000200E
:100D200082B0CDF800E001AA1070521C11700020B2
:100D3000074C2468A04701AA02211046FFF79EFE37
:100D40000120034C2468A047DDF800E002B07047A2
:100D50008C0000200204060844F67F77C0F21207D8
:100D60007F1EFDD100BF00BF00BF00BF00BF7047A6
:100D700001490860704700BF98812142014908601D
:100D8000704700BF9481224201490860704700BF4C
:100D90009C81214281B0CDF800E0094902B440F2C3
:100DA000000340F2000240F20001FFF7E3FD01B052
:100DB000044A05490A600020DDF800E001B07047F0
:100DC0005C190000610A00008000002081B0CDF8AD
:100DD00000E0094902B440F2000340F2000240F290
:100DE0000001FFF7B3FD01B0044A05490A60002085
:100DF000DDF800E001B07047C81900000D0A0000DE
:100E00008000002081B0CDF800E00178CCB2A0B223
:100E1000034C2468A0470020DDF800E001B07047D3
:100E20008000002081B0CDF800E0094902B440F212
:100E3000000340F2000240F20001FFF787FD01B01D
:100E4000044A05490A600020DDF800E001B070475F
:100E5000C81900000D0A00008000002081B0CDF804
:100E600000E0094902B440F2000340F2000240F2FF
:100E70000001FFF783FE01B0044A05490A60002023
:100E8000DDF800E001B07047F0180000B90900007B
:100E90008000002081B0CDF800E0A9E0012905D153
:100EA00040F210016548FFF74FFE04E040F21001E8
:100EB0006248FFF755FEBBE0012905D140F204016D
:100EC0005F48FFF741FE04E040F204015C48FFF791
:100ED00047FEADE0012905D142F200015948FFF774
:100EE00033FE04E042F200015648FFF739FE9FE06E
:100EF000012905D140F200415148FFF725FE04E0E9
:100F000040F200414E48FFF72BFE91E0012905D148
:100F100040F600014A48FFF717FE04E040F60001E2
:100F20004748FFF71DFE83E0012905D141F200018A
:100F30004348FFF709FE04E041F200014048FFF793
:100F40000FFE75E0012905D140F201013B48FFF792
:100F5000FBFD04E040F201013848FFF701FE67E0C5
:100F6000012905D140F200413648FFF7EDFD04E0CC
:100F700040F200413348FFF7F3FD59E0012905D164
:100F800040F200212F48FFF7DFFD04E040F200218E
:100F90002C48FFF7E5FD4BE0012905D140F2001197
:100FA0002848FFF7D1FD04E040F200112548FFF783
:100FB000D7FD3DE0012905D140F240012248FFF76D
:100FC000C3FD04E040F240011F48FFF7C9FD2FE0D8
:100FD000012905D140F280011B48FFF7B5FD04E06F
:100FE00040F280011848FFF7BBFD21E0012020E01E
:100FF00000283FF453AF01283FF45EAF02283FF4CE
:1010000069AF03283FF474AF04283FF47FAF05288D
:101010003FF48AAF06283FF495AF0728A0D00828F0
:10102000ACD00928B8D00A28C4D00B28D0D0DDE72E
:101030000020DDF800E001B0704700BF000801406B
:101040000010014000140140000C014081B0CDF8B7
:1010500000E0A9E0012905D140F220016548FFF731
:1010600073FD04E040F220016248FFF779FDBBE028
:10107000012905D140F208015F48FFF765FD04E052
:1010800040F208015C48FFF76BFDADE0012905D196
:1010900044F200015948FFF757FD04E044F2000113
:1010A0005648FFF75DFD9FE0012905D140F2004160
:1010B0005148FFF749FD04E040F200414E48FFF778
:1010C0004FFD91E0012905D140F600014A48FFF7A4
:1010D0003BFD04E040F600014748FFF741FD83E097
:1010E000012905D141F200014348FFF72DFD04E03D
:1010F00041F200014048FFF733FD75E0012905D1B9
:1011000041F200013D48FFF71FFD04E041F20001FC
:101110003A48FFF725FD67E0012905D140F60001B7
:101120003648FFF711FD04E040F600013348FFF7B1
:1011300017FD59E0012905D140F240012F48FFF782
:1011400003FD04E040F240012C48FFF709FD4BE0AD
:10115000012905D140F220012848FFF7F5FC04E001
:1011600040F220012548FFF7FBFC3DE0012905D1B5
:1011700040F240012248FFF7E7FC04E040F2400162
:101180001F48FFF7EDFC2FE0012905D140F2800157
:101190001B48FFF7D9FC04E040F280011848FFF734
:1011A000DFFC21E0012020E000283FF453AF0128BC
:1011B0003FF45EAF02283FF469AF03283FF474AFF9
:1011C00004283FF47FAF05283FF48AAF06283FF498
:1011D00095AF0728A0D00828ACD00928B8D00A2895
:1011E000C4D00B28D0D0DDE70020DDF800E001B04E
:1011F000704700BF0008014000100140001401408A
:10120000000C014081B0CDF800E0011D0A680168C2
:10121000C8B21146034AFFF74FFC0020DDF800E09A
:1012200001B07047341A000081B0CDF800E0011D14
:101230000A680168C8B21146034AFFF73DFC002066
:10124000DDF800E001B07047341A00000149086081
:10125000704700BFAC01224201490860704700BFDF
:10126000A801224201490860704700BFB001224234
:1012700001490860704700BFA88122420149086007
:10128000704700BF8001214201490860704700BFDC
:10129000B481224201490860704700BF9001214299
:1012A00001490860704700BF8801224281B0CDF833
:1012B00000E00E46002183B2002805DA01214042F9
:1012C00080B280B28FB201E098B28FB23146FFF7A0
:1012D00081FC06213446B8B2002908D963184A1E99
:1012E00092B2A21812781A70491E89B2F4E720222D
:1012F000227070B1002081B2204642181278202A54
:1013000002D1491C89B2F8E74A1E92B283182D22F5
:101310001A70DDF800E001B07047FFFF82B0CDF831
:1013200000E02220FFF7D8FCC1B2090289B2ADF873
:1013300004102120FFF7D0FCBDF8041041EA0000A2
:10134000DDF800E002B0704781B0CDF800E0022186
:101350000520FFF7E5FC00210C20FFF7E1FCDDF89C
:1013600000E001B07047FFFF81B0CDF800E0C1B2EE
:101370000B20FFF7D5FCDDF800E001B07047FFFF60
:1013800081B0CDF800E05FFA81F95FFA82FA0FE0F0
:101390005FFA8AF15FFA89F0FFF77CFD0DE05FFAF2
:1013A0008AF15FFA89F0FFF751FE06E0012004E0C0
:1013B0000028EDD00128F2D0F8E7DDF800E001B018
:1013C0007047FFFF81B0CDF800E003460846FFF705
:1013D00065FC1846FFF74AFC0120034C2468A0472F
:1013E000DDF800E001B070478C00002081B0CDF83E
:1013F00000E011E00846FFF731FD16E00846FFF770
:10140000E5FC12E00846FFF7C5FC0EE00846FFF7D2
:1014100009FD0AE0012008E00028EBD00128EDD00A
:101420002028EFD03028F1D0F4E7DDF800E001B05B
:101430007047FFFF83B0CDF800E0024610460D2252
:101440008DF808200A228DF809201FE0FFF7DAFC4A
:1014500023E002782AB10190FFF7D4FC0198401CE8
:10146000F7E71AE002782AB10190FFF7CBFC019868
:10147000401CF7E702AA1046FFF7C4FC0DF1090271
:101480001046FFF7BFFC08E0062007E00029DDD08A
:101490000129DED00229E5D0F6E70020DDF800E0E2
:1014A00003B0704781B0CDF800E03F20FFF714FC97
:1014B000D42801D0012052E007210120FFF730FCA1
:1014C00090210220FFF72CFCA0210320FFF728FC2D
:1014D00003210420FFF724FC00210520FFF720FC56
:1014E00000210720FFF71CFC00210820FFF718FC53
:1014F00000210920FFF714FC00210A20FFF710FC4F
:1015000001210B20FFF70CFC00210C20FFF708FC49
:1015100000211620FFF704FC00211720FFF700FC34
:1015200000211820FFF7FCFB00211920FFF7F8FB32
:1015300000213020FFF7F4FB00213120FFF7F0FB02
:1015400000213220FFF7ECFB00213320FFF7E8FBFE
:1015500000213420FFF7E4FBFFF7FEFB0020DDF85D
:1015600000E001B07047FFFF81B0CDF800E08B468E
:1015700009E05846FFF758FE0AE05846FFF742FEDA
:1015800006E0012004E00028F3D00128F5D0F8E7B8
:10159000DDF800E001B0704781B01548006840F008
:1015A00001011348016013491348016010480168A4
:1015B000124801400E4801600D4801686FF4802018
:1015C00001400B4801600C4801686FF4FE000140C7
:1015D00009480160064801686FF0A05001400448C6
:1015E00001604FF000010648016001B0704700BF84
:1015F000001002400000FFF004100240FFFFF6FE62
:101600002C10024081B0CDF800E017491748FFF7D1
:10161000D9FEFFF747FF202040F00600C1B20120AD
:10162000FFF77EFB002040F01F00C1B20220FFF751
:1016300077FB002040F03F00C1B20320FFF770FBB2
:10164000D02040F00400C1B20420FFF769FB002065
:10165000FFF78AFEFFF778FE05480221FFF7EAFE52
:10166000DDF800E001B070475C1B0000A01A00002C
:101670001400002081B0CDF800E0FFF74FFE0A49CA
:10168000088000B20949FFF711FE09480121FFF760
:10169000D1FE02210548FFF7CDFEFFF75DFBDDF827
:1016A00000E001B0704700BF4C0000204E00002059
:1016B0002E000020FFFFFFFF81B0CDF800E00122E7
:1016C00007210020FFF75CFE012206210020FFF722
:1016D00057FE002202210020FFF752FE0E4801466D
:1016E0000020FFF741FF42F280512020FFF77EFEED
:1016F0000A480221FFF79EFE44F67F77C0F21207E8
:101700007F1EFDD100BF00BF00BF00BF00BFDDF8DE
:1017100000E001B0704700BF641B00000000002023
:1017200081B04FF000094FF0000CBDEB0A0F04DC54
:10173000BDEB0B0F01DBD446EA464BF8049BBBEB39
:101740000A0FFAD1BCEB0A0F05DDE246D9F800B06A
:101750000BF1040BF1E701B07047FFFF81B01CF8FB
:10176000019B0BF8019BBBEB0A0FF8D101B070474E
:1017700081B002490248016001B070474019010080
:101780009800002081B0FEE701B0704700F00EF82D
:1017900000F02CFAFFF7ECFF00F0E8F9FFF78CFF00
:1017A000FFF730FFFFF766FFFCE7FEE781B0CDF8FB
:1017B00000E0464A464B474C47494BF68030814251
:1017C00006D94648006840F002014448016011E033
:1017D00045F6C050814206D94048006840F00101FA
:1017E0003E48016006E03D4801686FF00700014097
:1017F0003A480160FFF7D0FE394803603948046079
:10180000394802EA00013948016002F0010040B1A4
:1018100019463648006800F00200002800D1F8E7B9
:1018200000E0194602F4803040B10B462F480068B2
:1018300000F40030002800D1F8E700E00B4602F089
:10184000805068B12948006840F080512748016005
:101850002648006800F00050002800D1F8E7FFE7B4
:1018600002F0806078B12148006840F080611F4834
:10187000016011461A461D48006800F0006000280B
:1018800000D1F8E701E011461A4601F0807070B10E
:101890001648006840F080711448016011461348F2
:1018A000006800F0007000B9F9E70A46FFE70C484D
:1018B000006800F00C01900000F00C00814200D0A4
:1018C000F5E7DDF800E001B0704700BF81000105D9
:1018D00002841D004406010040190100002002405E
:1018E000041002402C100240FFFF0F0000100240C5
:1018F0003800000039000000FFFFFFFF000000007B
:1019000000000000000000000000000000000000D7
:1019100000000000000000000000000000000000C7
:10192000000000001808000018000000000000007F
:1019300000000000000000000000000000000000A7
:101940000000000000000000000000000000000097
:101950000000000000000000300014080900000032
:101960000A000000FFFFFFFF000000000000000071
:101970000000000000000000000000000000000067
:101980000000000000000000000000000000000057
:10199000180800001800000000000000000000000F
:1019A0000000000000000000000000000000000037
:1019B0000000000000000000000000000000000027
:1019C00000000000040000003500000036000000A8
:1019D000FFFFFFFF0000000000000000000000000B
:1019E00000000000000000000000000000000000F7
:1019F00000000000000000000000000018080000C7
:101A000018000000000000000000000000000000BE
:101A100000000000000000000000000000000000C6
:101A200000000000000000000000000000000000B6
:101A3000080000082A0000002B0000002C00000015
:101A4000FFFFFFFF0000000000000000000000009A
:101A50000000000000000000000000000000000086
:101A60000000000000000000180800001808000036
:101A70001808000000000000000000000000000046
:101A80000000000000000000000000000000000056
:101A9000000000000000000000000000001120080D
:101AA00095120000A11200008912000059120000D6
:101AB0004D120000651200007D120000711200003E
:101AC0003D0C0000310C0000250C0000610C0000F2
:101AD000FFFFFFFFFFFFFFFFFFFFFFFFFFFFFFFF16
:101AE000FFFFFFFFFFFFFFFFFFFFFFFFFFFFFFFF06
:101AF000FFFFFFFFFFFFFFFFFFFFFFFFFFFFFFFFF6
:101B00002D2D2D2053797374656D20496E697420D5
:101B10002D2D2D002D2D2D205374617274206D6597
:101B200061737572656D656E74202D2D2D002049D1
:101B30006E64756374697665204C696E65617220A8
:101B4000506F736974696F6E203A000000000001E5
:101B50000203040102030406070809FF450A000006
:101B6000F9040000070000000703000000B5DFF8DB
:101B700014B0DFF814A0DFF814C0FFF7EFFD00BDCC
:101B8000704700BF000000204B000020001B000039
:101B9000FFFFFFFFFFFFFFFFFFFFFFFFFFFFFFFF55
:101BA000FFFFFFFFFFFFFFFFFFFFFFFFFFFFFFFF45
:101BB000FFFFFFFFFFFFFFFFFFFFFFFFFFFFFFFF35
:101BC000FFFFFFFFFFFFFFFFFFFFFFFFFFFFFFFF25
:101BD000FFFFFFFFFFFFFFFFFFFFFFFFFFFFFFFF15
:101BE000FFFFFFFFFFFFFFFFFFFFFFFF00B5DFF875
:101BF00010B0DFF810A0FFF793FD00BD704700BFE5
:101C000000000020B4000020FFFFFFFFFFFFFFFFE8
:00000001FF
